S00C000075786F732E7372656349
S113000012C02CC02BC02AC029C028C027C026C0BB
S113001025C087C323C022C021C020C01FC01EC06A
S11300201DC01CC01BC011241FBECFE5D4E0DEBF21
S1130030CDBF10E0A0E6B0E0EAEBF9E002C0059025
S11300400D92A836B107D9F720E0A8E6B0E001C0C8
S11300501D92A93BB207E1F757D2ADC4D1CF90911D
S113006060009F3F11F4809360000895AF92BF92A7
S1130070CF92DF92EF92FF920F931F93CF93DF9370
S113008016B3F89495D36B017C017894C8E7D0E05B
S113009002E084E0B82E93E0A92EFE01319780811E
S11300A08123F1F589819A81AB81BC812881223039
S11300B011F4A88219C0B701A601481B590B6A0B99
S11300C07B0BDB01CA01233039F4803D9740A10545
S11300D0B10570F0B88208C0243051F44A3F51058C
S11300E06105710528F02883C982DA82EB82FC82DB
S11300F089819A81AB81BC818C159D05AE05BF05B4
S113010081F488E090E04AD2BC01009751F08881E4
S1130110FB01818380916000808340E8AFD201C0FD
S113012008832696F0E0C438DF0709F0B6CFDF91E4
S1130130CF911F910F91FF90EF90DF90CF90BF90E0
S1130140AF900895909161009F3F11F480936100F6
S113015008958430C0F49DE0899FF0011124ED5787
S1130160FF4F6283308128B381E090E0032E01C009
S1130170880F0A94EAF7613021F48095822388BBC2
S11301800895282B28BB0895CF92DF92EF92FF9217
S11301900F931F93CF93DF938901853008F063C0D9
S11301A02115310509F44DC0442309F44AC04436ED
S11301B008F045C0C82FD0E09DE0899FF0011124CC
S11301C0ED57FF4F81E08183660F771F748363834C
S11301D0429FC001439F900D112464E670E0D7D381
S11301E07683658330872783F894E2D278942DE070
S11301F02C9FF0012D9FF00D1124ED57FF4F4281EC
S113020025813681413059F4AB01BC01420F531FA3
S1130210611D711D418752876387748714C068010B
S1130220E12CF12CC21AD30AE108F108C60ED71E3C
S1130230E81EF91EC186D286E386F48604C061E016
S113024001C062E086DF64E08091610025D364E050
S113025080916100DF91CF911F910F91FF90EF90FA
S1130260DF90CF9056C1DF91CF911F910F91FF90F6
S1130270EF90DF90CF900895CF93C82F87FF1CC0D5
S1130280809168000DD2009719F480E88C0F1BC090
S1130290FC012181233029F0243039F428B330E1E2
S11302A002C028B330E2232728BB09D2809168001A
S11302B0F7D1892B39F4E9CF82FF04C0D7DE84E07B
S11302C08C2701C08C2FCF910895CF938093690020
S11302D039DFC2E0C0938400C0938500109283008C
S11302E061E080E036DFC0939100C093920081E02A
S11302F08093900061E02DDFC0939E00C0939F0027
S1130300C0939D0061E082E024DFC093AB00C09302
S1130310AC0083E08093AA0061E01BDF24E630E0B8
S113032048E26CE271E080E02FDF28EC30E04EE13F
S113033068EC70E081E028DF2CE231E044E164E61F
S113034070E082E021DF20E931E04AE062E370E01E
S113035083E01ADF8FEF87BB88BB40E157E262E09E
S113036080916900CF9186C24F925F926F927F9283
S11303708F929F92AF92BF92CF92DF92EF92FF92B1
S11303800F931F93CF93DF93C4E8D0E085E8A82EA2
S113039080E0B82E812C0FEF1FEF92E0992E888118
S11303A0813009F04FC08A819B81892B09F449C0AF
S11303B0F894FED16B017C01789488859985AA858F
S11303C0BB85C816D906EA06FB06A0F18A819B8183
S11303D001979B838A83F50180818130E9F462E08F
S11303E0882DB7DE4E815F812A01612C712C2C810E
S11303F03D81421A530A610871084C0C5D1C6E1C45
S11304007F1C488659866A867B86421B530B40179D
S11304105107C0F48A0116C061E0882D9ADE8C81F0
S11304209D81C80ED91EE11CF11CC886D986EA86B6
S1130430FB8602C08C199D098017910718F48C0162
S113044001C0988283942D96FDE0AF0EB11C84E028
S11304508812A5CF0F3FEFEF1E07A9F0A80164E0B3
S113046080916900DF91CF911F910F91FF90EF90E0
S1130470DF90CF90BF90AF909F908F907F906F90C0
S11304805F904F90EEC1DF91CF911F910F91FF903C
S1130490EF90DF90CF90BF90AF909F908F907F9020
S11304A06F905F904F900895CF93C82F87FF03C03C
S11304B080E88C0F09C082FF03C056DF84E003C0CC
S11304C081FF02C082E08C27CF9108958093680059
S11304D0C6DD87B38F7387BB88B3806C88BB82E02B
S11304E08093780090E49093770080937E0080E876
S11304F080937D0042E350E064E080916800BAC1DB
S113050080E0E3DE81E0E2CF10D015D080E090E01F
S1130510089590916200891738F4E82FF0E0E954C7
S1130520FF4F8081862B80830895F89484D0E8DF80
S113053029D178940895CF93DF9300D0CDB7DEB757
S113054080916200A7EBB0E0E0E09D91911103C0BF
S1130550EF5FE817D0F3E81798F4F0E08F0109543F
S11305601F4FD8018C911C92EE0FFF1FED59FF4FC6
S11305700190F081E02D0995F8019081982B9083EA
S1130580F89411D178940097D9F2F89489839A83D6
S113059005D1789489819A8190D1D2CF9C01215040
S11305A031092F31334018F080E090E00895209114
S11305B06A0030916B00232B31F420EC30E030934F
S11305C06B0020936A0060916A0070916B0040E0B8
S11305D050E020E030E0FC013196DB01A20FB31FB4
S11305E0AC912F5F3F4FA11114C04F5F5F4F4E1767
S11305F05F0799F4F901E41BF50BE60FF71F8083FD
S1130600281B390B80916A0090916B00820F931F15
S113061008952A0F311D40E050E02032A3E03A074C
S1130620E0F2C2CFFB01460F571FE417F50711F0A4
S11306308193FBCF089540E253E060EC70E080E0EA
S1130640F1CFAB014F5F5F4FBC016150710980E096
S1130650E9CFE0916C00F0916D00309729F490930C
S11306606D0080936C000895268137812115310532
S113067011F0F901F9CF9783868308951F93CF93DF
S1130680DF931F92CDB7DEB7182FCB014983E1DF8B
S11306904981642F812F0F90DF91CF911F9139CF22
S11306A0E0916C00F0916D00309739F090819817CB
S11306B021F00680F781E02DF7CFCF010895EF9266
S11306C0FF920F931F93CF93DF937C01C0916C0033
S11306D0D0916D0000E010E02097E1F0CE15DF0529
S11306E0A1F49E818F810115110539F4C92FD82FEA
S11306F0D0936D00C0936C0003C0F8019683878388
S113070068E070E0C7019DDFE7CF8E010E80DF81D6
S1130710C02DE2CFDF91CF911F910F91FF90EF9009
S113072008951F920F920FB60F9211248F939F93E7
S1130730AF93BF938091740082BF809172009091B7
S113074073000196909373008093720080916E0001
S113075090916F00A0917000B09171000196A11D5D
S1130760B11D80936E0090936F00A0937000B093BE
S11307707100BF91AF919F918F910F900FBE0F9019
S11307801F90189583B7887F846083BF89B7816081
S113079089BF80EE82BF8093740008951092730025
S11307A010927200089580917200909173000895E0
S11307B060916E0070916F00809170009091710053
S11307C00895E0917500F0917600309751F0928190
S11307D0961303C09381981721F00190F081E02DC6
S11307E0F4CFCF0108950F931F93CF93DF93082F76
S11307F0162FEA01E6DFFC01009719F0D583C483C4
S113080022C088E090E0CADEFC010097F1F0038387
S11308101283D583C4831182108217821682A09119
S11308207500B0917600109729F490937600809328
S1130830750009C08D919C911197009711F0DC010E
S1130840F9CFED93FC93CF0102C080E090E0DF91FB
S1130850CF911F910F910895009711F0FC0112821E
S11308600895F894C0DF789421E0892B09F020E002
S1130870822F0895CF93DF93EA01F894B4DFFC014B
S1130880009711F0D783C683789481E0EF2B09F0A9
S113089080E0DF91CF910895CF93DF93F89491DFB7
S11308A0EC01009709F0D8DF7894CD2B11F080E0AB
S11308B001C082E0DF91CF910895CF92DF92EF9251
S11308C0FF920F931F93CF93DF936C01C091750038
S11308D0D0917600209709F451C0E12CF12CF894C2
S11308E08C819D81C816D90618F01D821C8204C013
S11308F08C199D099D838C838C819D81892B69F43E
S11309008E819F81892B49F06A81662331F08B8126
S113091000DE8E819F819D838C838C819D813881B3
S11309202981892B19F08A81811110C0E114F10405
S113093029F4309375002093760003C0F7013083C7
S113094021838E010990D881C02D05C07E01C32F5B
S1130950D22F00E010E078940115110561F0F80140
S113096084819581892B19F462818381D2DD68E0C9
S113097070E0C80166DE209709F0B1CFDF91CF9116
S11309801F910F91FF90EF90DF90CF900895AA1BD5
S1130990BB1B51E107C0AA1FBB1FA617B70710F066
S11309A0A61BB70B881F991F5A95A9F78095909598
S10D09B0BC01CD010895F894FFCFB7
S10B09BAFFFF0254023C01009E
S9030000FC
